:200000000C9426040C9438040C9438040C9496040C9422110C9438040C9438040C943804BD
:200020000C9438040C9438040C9438040C9473130C9438040C9438040C9438040C94380496
:200040000C948C150C9438040C94121D0C94D41C0C9438040C9438040C9438040C943804B4
:200060000C9438040C9438044B0C4E0C530C560C590C5C0C5F0C620C650C680C6B0C770CD1
:20008000770C770C770C770C770C770C770C710C6E0C740CBE0CC10CC40CC70CCA0CCD0C6B
:2000A000D00CD30CED24D12CD12CF724042511251E25D12C2225D12C3025D12C3A25442562
:2000C0007525D12CD12CD12C4E255B256825952BA62BC52BA62BC92BDC2BCF2BD52BF12BAC
:2000E000F72B062C1D2C412C4B2C572C612C4032463249324C32513259326332CF32CF32E7
:20010000CF326B326E3277328032CF32CF32CF32CF32CF32CF32883292329E32A632A9323F
:20012000B232BB32C132084AD73B3BCE016E84BCBFFDC12F3D6C74319ABD56833DDA3D0061
:20014000C77F11BED9E4BB4C3E916BAAAABE000000803F05A84CCDB2D44EB93836A9020C43
:2001600050B9918688083CA6AAAA2ABE000000803F003E0D0A002C4C696D3A002C52583A05
:20018000002C4275663A002C002C57506F733A002C002C4D506F733A003C446F6F72003CA4
:2001A000436865636B003C416C61726D003C486F6D65003C486F6C64003C52756E003C49BA
:2001C000646C65005D0D0A005B302E396A2E32303135303831313A000D0A003D00244E005A
:2001E0005D0D0A00205300204600205400204D3800204D3900204D3500204D3400204D3310
:2002000000204D3200204D3100204D300020473934002047393300204739310020473930BC
:200220000020473230002047323100204731390020473138002047313700204700473338A2
:200240002E00473830004733004732004731004730005B005D0D0A005B544C4F3A005D0D22
:200260000A002C005B4739323A005D0D0A002C003A003330003238005B47005D0D0A003A0A
:20028000002C005B5052423A00290D0A00206D61782074726176656C2C206D6D002061635B
:2002A00063656C2C206D6D2F7365635E3200206D617820726174652C206D6D2F6D696E001F
:2002C0002C20737465702F6D6D007A00790078002028003D0024002028686F6D696E67200F
:2002E00070756C6C2D6F66662C206D6D290D0A002028686F6D696E67206465626F756E63A9
:20030000652C206D736563290D0A2432373D002028686F6D696E67207365656B2C206D6DC2
:200320002F6D696E290D0A2432363D002028686F6D696E6720666565642C206D6D2F6D6998
:200340006E290D0A2432353D00290D0A2432343D002028686F6D696E672064697220696E00
:2003600076657274206D61736B3A002028686F6D696E67206379636C652C20626F6F6C299B
:200380000D0A2432333D00202868617264206C696D6974732C20626F6F6C290D0A24323227
:2003A0003D002028736F6674206C696D6974732C20626F6F6C290D0A2432313D0020287294
:2003C00065706F727420696E636865732C20626F6F6C290D0A2432303D00202861726320C0
:2003E000746F6C6572616E63652C206D6D290D0A2431333D0020286A756E6374696F6E2043
:20040000646576696174696F6E2C206D6D290D0A2431323D00290D0A2431313D0020287331
:200420007461747573207265706F7274206D61736B3A00202870726F62652070696E206979
:200440006E766572742C20626F6F6C290D0A2431303D0020286C696D69742070696E732012
:20046000696E766572742C20626F6F6C290D0A24363D0020287374657020656E61626C658A
:2004800020696E766572742C20626F6F6C290D0A24353D00290D0A24343D0020286469727A
:2004A00020706F727420696E76657274206D61736B3A00290D0A24333D00202873746570C1
:2004C00020706F727420696E76657274206D61736B3A002028737465702069646C65206433
:2004E000656C61792C206D736563290D0A24323D002028737465702070756C73652C20757C
:20050000736563290D0A24313D0024303D002424202876696577204772626C20736574746B
:20052000696E6773290D0A2423202876696577202320706172616D6574657273290D0A2485
:200540004720287669657720706172736572207374617465290D0A24492028766965772093
:200560006275696C6420696E666F290D0A244E202876696577207374617274757020626CC9
:200580006F636B73290D0A24783D76616C7565202873617665204772626C2073657474698E
:2005A0006E67290D0A244E783D6C696E65202873617665207374617274757020626C6F636D
:2005C0006B290D0A24432028636865636B2067636F6465206D6F6465290D0A245820286B6D
:2005E000696C6C20616C61726D206C6F636B290D0A2448202872756E20686F6D696E6720B9
:200600006379636C65290D0A7E20286379636C65207374617274290D0A2120286665656429
:2006200020686F6C64290D0A3F202863757272656E7420737461747573290D0A6374726C70
:200640002D7820287265736574204772626C290D0A000D0A4772626C20302E396A205B2742
:20066000242720666F722068656C705D0D0A005D0D0A00526573746F72696E67206465660B
:2006800061756C74730050676D20456E6400436865636B20446F6F720044697361626C6590
:2006A0006400456E61626C65640043617574696F6E3A20556E6C6F636B656400272448270F
:2006C0007C2724582720746F20756E6C6F636B00526573657420746F20636F6E74696E75FF
:2006E00065005B000D0A00486F6D696E67206661696C0050726F6265206661696C004162AE
:200700006F727420647572696E67206379636C6500536F6674206C696D6974004861726451
:20072000206C696D697400414C41524D3A20000D0A00496E76616C69642067636F64652093
:2007400049443A00556E646566696E65642066656564207261746500556E737570706F7254
:2007600074656420636F6D6D616E64004D6F64616C2067726F75702076696F6C6174696F7C
:200780006E004C696E65206F766572666C6F7700486F6D696E67206E6F7420656E61626CDA
:2007A000656400416C61726D206C6F636B004E6F742069646C6500454550524F4D2072650C
:2007C0006164206661696C2E205573696E672064656661756C74730056616C7565203C2053
:2007E0003320757365630053657474696E672064697361626C65640056616C7565203C2047
:200800003000496E76616C69642073746174656D656E7400426164206E756D6265722066B6
:200820006F726D617400457870656374656420636F6D6D616E64206C6574746572006572DD
:20084000726F723A20006F6B0D0A000011241FBECFEFD8E0DEBFCDBF26E0A0E0B1E001C071
:200860001D92AD3CB207E1F70E94DF100C943C380C940000EBE6F0E08081897E8083E8E690
:20088000F0E080818E7F8083089584B1897E84B985B1866185B98091BD0683FF0BC08091D4
:2008A0006B00866180936B008091680081608093680008950C943A04CF92DF92FF920F9313
:2008C0001F93CF93DF931F92CDB7DEB793B196718091BD0686FD02C086E198279923D9F0B9
:2008E000C12CD12CF12C01E010E08C2D99830E94FC329981892339F098010C2C01C0220FC9
:200900000A94EAF7F22A8FEFC81AD80AE3E0CE16D10459F701C0F12C8F2D0F90DF91CF9125
:200920001F910F91FF90DF90CF9008951F920F920FB60F9211242F933F934F935F936F9316
:200940007F938F939F93AF93BF93EF93FF9380912805813071F080912B0581110AC00E94FA
:200960000A0C9FB7F89480912B05836080932B059FBFFF91EF91BF91AF919F918F917F91BA
:200980006F915F914F913F912F910F900FBE0F901F9018952F923F924F925F926F927F921A
:2009A0008F929F92AF92BF92CF92DF92EF92FF920F931F93CF93DF93CDB7DEB767970FB66B
:2009C000F894DEBF0FBECDBF582E809127058111A1C124EAA22E26E0B22E9E01235F3F4F6B
:2009E000190100E010E0C12CD12C7601652C712C802F0E94E832D1018D931D01C301002E11
:200A000002C0959587950A94E2F780FF1AC020E030E040EC5FEBF501608171818281938198
:200A20000E940137688B472E4C01262F372FAC01C701B6010E94C63618161CF0C888D42C18
:200A400074010F5F1F4FF4E0AF0EB11C0330110579F68090C3069090C406A090C506B09031
:200A6000C60624E0288B01E06CE275E0CE0101960E940E132090BE06312CFE0131968CE241
:200A800095E09F8B8E8B80E090E0412C10E0B701A60170589301082E02C0359527950A949A
:200AA000E2F720FF28C04394AE89BF891D921D921D921C9213979101082E02C0359527958B
:200AC0000A94E2F720FF03C0002319F007C0002329F0C082D182E282F38204C040835183C5
:200AE000628373832DE030E02C0F3D1F280F391FD9012C91122B019634962E893F892C5F99
:200B00003F4F3F8B2E8B8330910521F6642D70E080E090E00E9463350E948E379B01AC01C9
:200B2000C501B4010E940137AB01BC01109338054A8B5B8B6C8B7D8B0E946E2220E04A8958
:200B40005B896C897D89CE0101960E94751F0E944E160E9428130023E9F00E945C04FE013A
:200B60003D9620E030E090E06191462F412359F0AC01022E02C0559547950A94E2F740FFF3
:200B800002C0609516232F5F3F4F2330310561F7109338050E944E1680912A058473C1F09A
:200BA00080912A05807329F00E940A0C0E94312DB1C00111AAC00E945C048521A9F79FB7A6
:200BC000F89480912A058B7F80932A059FBF04C0812F8C7109F0BFCF0E94DE150E941E1F33
:200BE0008091C7069091C8060E94B83331E00327C9F020E030E040EA50E46091C906709178
:200C0000CA068091CB069091CC060E9401376B017C018090BF069090C006A090C106B0907A
:200C2000C20610C0C090C906D090CA06E090CB06F090CC068090C3069090C406A090C5067C
:200C4000B090C60688898150888B81110DCF8091BE06A82FB0E0B98BA88BC090C906D090F3
:200C6000CA06E090CB06F090CC061601270157FA509457F8509480E8A82E86E0B82E9CE262
:200C8000892E95E0992E00E010E0C301002E02C0959587950A94E2F780FF29C08889998985
:200CA000002E02C0959587950A94E2F7F50180FF0EC024A135A146A157A1C701B6010E94A9
:200CC000EA33D5012D913D914D915C9106C02081318142815381C201B1010E9401370E9429
:200CE000D136D4016D937D938D939C9313970F5F1F4FB4E08B0E911CE4E0AE0EB11C0330D9
:200D0000110519F60E946E2205C080912A0582FF56CF4ACF67960FB6F894DEBF0FBECDBF74
:200D2000DF91CF911F910F91FF90EF90DF90CF90BF90AF909F908F907F906F905F904F90FF
:200D40003F902F900895CF92DF92EF92FF920F931F93CF93DF938C01C4EAD6E0F801C19021
:200D6000D190E190F1908F0120E030E0A901C701B6010E94C636181654F0299139914991E9
:200D80005991C701B6010E94C33487FF2BC0809128058830A1F00E940A0C9FB7F8948091AE
:200DA0002B05856080932B059FBFDF91CF911F910F91FF90EF90DF90CF900C94312D9FB72D
:200DC000F89480912A05886080932A059FBF0E94312D8091270581110AC080912805811156
:200DE000F6CFD9CFF6E0C03BDF0709F0B7CFDF91CF911F910F91FF90EF90DF90CF900895B7
:200E0000F999FECF92BD81BD81E08FBB80B50895F894F999FECF92BD81BD81E08FBB40B551
:200E20004627842F992787FD9095262F30E082239323892B39F06F3F19F060BD84E006C08E
:200E400084E104C0442321F060BD84E28FBBF99A789408959F92AF92BF92CF92DF92EF92D2
:200E6000FF920F931F93CF93DF938C017A016B01C40ED51EEB01912C5C01A61AB70ACE012A
:200E80008A0D9B1DCC15DD0591F0911009C0692D772767FD7095272F221F2227221F01C0D6
:200EA00021E06991922E960E0E940807E8CF692DC8018E0D9F1DDF91CF911F910F91FF9006
:200EC000EF90DF90CF90BF90AF909F900C9408079F92AF92BF92CF92DF92EF92FF920F9310
:200EE0001F93CF93DF938B017A016C01C40ED51EEC01912C5B01A81AB90AC5018C0F9D1F8B
:200F0000CC15DD0591F00E940007911009C0292D332727FD3095232F221F2227221F01C003
:200F200021E0922E980E8993E8CFC8018E0D9F1D0E94000721E030E0981611F020E030E0DE
:200F4000C901DF91CF911F910F91FF90EF90DF90CF90BF90AF909F900895EF92FF921F93AD
:200F6000CF93DF9300D000D0CDB7DEB77C01122F8091BD0685FF0BC0C70149835A836B83A4
:200F80007C830E94A3067C816B815A81498180912805823031F149835A836B837C830E942F
:200FA000312D8091270581111CC00E946D1F49815A816B817C81882339F00E94532E4981AB
:200FC0005A816B817C81E7CF212FC7010F900F900F900F90DF91CF911F91FF90EF900C94D5
:200FE000751F0F900F900F900F90DF91CF911F91FF90EF9008952F923F924F925F926F9251
:201000007F928F929F92AF92BF92CF92DF92EF92FF920F931F93CF93DF93CDB7DEB7E79738
:201020000FB6F894DEBF0FBECDBF9C8B8B8B1B013A0109871A872B873C87AF8A2D961FAD67
:201040002D972E962FAD2E97298B2F963FAD2F973D8B84E0889EA00111245A834983AB8937
:20106000BC89A40FB51FB98FA88F460D571D5B8F4A8FFA0180809180A280B3802D913D91AE
:201080004D915C91C501B4010E94EA336C8F7D8F8E8F9F8FF4E01F9F800111242B893C8938
:2010A000200F311F39A328A3A301400F511F5BA34AA3DA014D905D906D907C90F901208173
:2010C000318142815381C301B2010E94EA336CA37DA38EA39FA3A501940150582D873E8793
:2010E0004F87588BD301C201B0588D839E83AF83B887E981FA81E20DF31D2C8D3D8D4E8DB4
:201100005F8D60817181828193810E94E9332B013C01F101E00FF11F2CA13DA14EA15FA147
:2011200060817181828193810E94E9334B015C01A30192016D857E858F8598890E94013723
:2011400069837A838B839C83A50194016D817E818F8198850E9401379B01AC0169817A811C
:201160008B819C810E94EA3369837A838B839C83A50194016D857E858F8598890E94013732
:201180004B015C01A30192016D817E818F8198850E9401379B01AC01C501B4010E94E933F9
:2011A00029813A814B815C810E945D342B013C019D89992399F02DEB37E346E055EBC301BE
:2011C000B2010E94C63687FD1DC02BED3FE049EC50E4C301B2010E94E93312C02DEB37E384
:2011E00046E055E3C301B2010E94C334181654F02BED3FE049EC50E4C301B2010E94EA3339
:201200002B013C018090B9069090BA06A090BB06B090BC0629853A854B855C85CA01B90120
:201220000E94EA33A50194010E94E9339B01AC01C501B4010E9401370E948E374B015C0148
:2012400020E030E040E05FE3C301B2010E94013729853A854B855C850E9401379F77A50117
:2012600094010E94CA340E94A0350E9437357E8B6D8BDB01AB2B09F486C14B01A12CB12CC7
:20128000BF89BB2361F0C501B4010E9463359B01AC01C701B6010E9401376B017C01C501D1
:2012A000B4010E9463354B015C019B01AC01C301B2010E94CA3469877A878B879C87F9898E
:2012C000E4E0FE9FC00111242B893C89280F391F3A8B298BF101E80FF91FD9012D913D91CF
:2012E0004D915C9160817181828193810E94E933A50194010E94CA346CAB7DAB8EAB9FABDE
:2013000029853A854B855C85CA01B9010E9401379B01AC0160E070E080E090E40E94E933E5
:201320004B015C012BEA3AEA4AE25EE369857A858B859C850E9401372B013C0120E030E0ED
:2013400040E850E4C501B4010E94EA339B01AC01C301B2010E94013768A779A78AA79BA7BB
:2013600020E030E040E05FE3C501B4010E9401376CA77DA78EA79FA7198201E010E0ED8912
:20138000FE890E171F0709F4FEC0B981BC3008F04AC02CA53DA54EA55FA56D817E818F81F1
:2013A00098850E9401374B015C0128A539A54AA55BA56D857E858F8598890E940137A50149
:2013C00094010E94EA33B62EA72E982E892E2CA53DA54EA55FA56D857E858F8598890E940D
:2013E00001372B013C0128A539A54AA55BA56D817E818F8198850E9401379B01AC01C301B1
:20140000B2010E94E9336D877E878F87988BE981EF5FE9838B2D9A2DA92DB82D8D839E839A
:20142000AF83B8876EC0B80180E090E00E94633529853A854B855C850E9401374B015C01A9
:201440000E94C7346D837E838F839887C501B4010E9484374B015C01EA8DFB8D808191813A
:20146000A281B3819C01AD01505829833A834B835C83AAA1BBA18D919D910D90BC91A02D62
:2014800088AB99ABAAABBBAB2D813E814F81588569817A818B819C810E9401372B013C01AF
:2014A000A501940168A979A98AA99BA90E9401379B01AC01C301B2010E94EA336D877E87F5
:2014C0008F87988BA501940169817A818B819C810E9401374B015C012D813E814F815885ED
:2014E00068A979A98AA99BA90E9401379B01AC01C501B4010E94E9336D837E838F839887C4
:2015000019822D853E854F8558896C8D7D8D8E8D9F8D0E94EA33E88DF98D60837183828326
:2015200093832D813E814F8158856CA17DA18EA19FA10E94EA33A8A1B9A16D937D938D934F
:201540009C9313972CA93DA94EA95FA9E989FA8960817181828193810E94EA33A989BA89E5
:201560006D937D938D939C9313972F89B701A6018B899C890E94AD0780912705811121C00C
:201580000F5F1F4FFCCE2F89B701A601C101E7960FB6F894DEBF0FBECDBFDF91CF911F9188
:2015A0000F91FF90EF90DF90CF90BF90AF909F908F907F906F905F904F903F902F900C94C9
:2015C000AD07E7960FB6F894DEBF0FBECDBFDF91CF911F910F91FF90EF90DF90CF90BF9048
:2015E000AF909F908F907F906F905F904F903F902F9008958F929F92AF92BF92CF92DF92A1
:20160000EF92FF924B015C0180912805823009F447C020E030E040EA51E4C501B4010E948F
:2016200001370E94A0350E9437356B017C010E94DE2E20E030E04AE754E4C501B4010E94C0
:2016400001374B015C0182E38C9DB0018D9D700D112480E090E00E9463359B01AC01C50175
:20166000B4010E94E9330E94A0350E943735CB010E94B833C114D10499F00E94312D21E0E5
:20168000C21AD1088091270581110AC08FEF90E722E0815090402040E1F700C00000EACFB3
:2016A000FF90EF90DF90CF90BF90AF909F908F9008950E943A0484E00E94CA0483E00E941C
:2016C000CA040E94312D80912705811104C00E94C2220C9445040895CF92DF92EF920F93A8
:2016E000CF93DF9300D000D01F92CDB7DEB76C0180912805823009F481C02D8349835A83B8
:201700006B837C830E94DE2E10924605802F0E94002D0E94122D2D8149815A816B817C81A6
:201720008823A1F09FB7F89480912B05806180932B059FBF2D8349835A836B837C830E94E0
:20174000312D7C816B815A8149812D8180912705811154C0C6010E94AD0781E0809339053D
:201760009FB7F89480912A05826080932A059FBF0E94312D80912705811140C080912805B8
:201780008111F6CF809139058130A9F4EE2051F08CE0ECE2F5E0AAE3B5E001900D928A9586
:2017A000E1F70CC09FB7F89480912B05806180932B059FBF03C081E080934605109239057E
:2017C0000E94312D80912705811118C00E94DE150E941E1F0E946E226CE275E0C6010E94B0
:2017E0000E130F900F900F900F900F90DF91CF910F91EF90DF90CF900C94450E0F900F90BF
:201800000F900F900F90DF91CF910F91EF90DF90CF90089580912A0584FD26C09FB7F89408
:2018200080912A05806180932A059FBF0E94751D0E94EF2E80912805982F9C7021F49091AD
:201840002905913089F49FB7843029F4F89480912B05806204C0F89480912B0588608093BA
:201860002B059FBF0C9448130895CF93C82F811103C086E498E044C08EE398E00E941C2FD8
:201880004C2F50E0FA013197E631F10580F5EC5CFF4F0C941C3886E298E002C084E198E04F
:2018A0000E941C2F2BC082E098E0FACF88EF97E0F7CF87EE97E0F4CF88ED97E0F1CF87EB2C
:2018C00097E0EECF8EEA97E0EBCF83EA97E0E8CF80E997E0E5CF82E897E0E2CF8CE697E081
:2018E000DFCF88E597E0DCCF84E497E0D9CF82E397E00E941C2F8C2F0E946E2F8FE297E079
:20190000CF910C941C2FCF93C82F87E297E00E941C2FC33091F03CF4C13061F0C230A1F4E9
:2019200081E197E00FC0C43059F0C53069F487EE96E008C08CE197E005C08EEF96E002C05F
:2019400083EF96E00E941C2F84EE96E00E941C2F84EF91E0CF910C94B833CF93C82F82EE45
:2019600096E00E941C2F8C2F90E0FC013197E830F105E8F4E65BFF4F0C941C3880ED96E0C4
:2019800014C08CEB96E011C08AEA96E00EC082EA96E00BC089E996E008C08EE896E005C0EF
:2019A00086E896E002C083E796E00E941C2F8FE696E0CF910C941C2F82E596E00C941C2FB6
:2019C0008EE095E00C941C2FFF920F931F93CF93DF938AE095E00E941C2F8091B0060E944B
:2019E0006E2F81EF94E00E941C2F8091B3060E946E2F83ED94E00E941C2F8091B1060E9435
:201A00006E2F8AEB94E00E941C2F8091B1060E946A2F83EB94E00E941C2F8091B2060E9416
:201A20006E2F8BE994E00E941C2F8091B2060E946A2F84E994E00E941C2F8091BD0682FB11
:201A4000882780F90E946E2F83E794E00E941C2F8091BD0686FB882780F90E946E2F83E530
:201A600094E00E941C2F8091BD06881F8827881F0E946E2F83E394E00E941C2F8091B40663
:201A80000E946E2F8DE194E00E941C2F8091B4060E946A2F85E194E00E941C2F6091B506BF
:201AA0007091B6068091B7069091B8060E94413085EF93E00E941C2F6091B9067091BA0664
:201AC0008091BB069091BC060E9441308AED93E00E941C2F8091BD0681700E946E2F8DEBEB
:201AE00093E00E941C2F8091BD0685FB882780F90E946E2F82EA93E00E941C2F8091BD062B
:201B000083FB882780F90E946E2F87E893E00E941C2F8091BD06829581700E946E2F8BE685
:201B200093E00E941C2F8091BE060E946E2F81E593E00E941C2F8091BE060E946A2F89E4EE
:201B400093E00E941C2F6091BF067091C0068091C1069091C2060E9441308CE293E00E9451
:201B60001C2F6091C3067091C4068091C5069091C6060E9441308FE093E00E941C2F8091D9
:201B8000C7060E946E2F80EF92E00E941C2F6091C9067091CA068091CB069091CC060E9463
:201BA000413087ED92E00E941C2F84E6F82E10E0C0E8D6E000E085ED92E00E941C2F802FA3
:201BC0008F0D0E946E2F83ED92E00E941C2F123071F01330B9F0113029F0688179818A8184
:201BE0009B8117C06C857D858E859F8512C020E030E041E655E4688D798D8A8D9B8D0E94AA
:201C0000CA3407C08CA19DA1AEA1BFA1BC01CD0190580E94413080ED92E00E941C2F013062
:201C200029F0023031F08EEC92E005C08CEC92E002C08AEC92E00E941C2F123051F0133040
:201C400059F0113019F080EC92E008C08EEA92E005C08DE992E002C08DE892E00E941C2F1E
:201C600089E892E00E941C2F0F5F2496033009F0A2CF8AE0F80E1F5F8CE8F81299CFDF918B
:201C8000CF911F910F91FF900895CF9383E892E00E941C2FC0E06C2F8AE395E00E94F41277
:201CA0000E942330C23021F081E892E00E941C2FCF5FC33081F78FE792E00E941C2F8091E5
:201CC00046050E946E2F8BE792E0CF910C941C2FEF92FF920F931F93CF93DF93CDB7DEB7F8
:201CE0002C970FB6F894DEBF0FBECDBFF12CBE016F5F7F4F8F2D0E94A031811104C087E076
:201D00000E94350C69C088E792E00E941C2F86E0F81631F0E7E0FE1208C082E792E002C018
:201D200085E792E00E941C2F04C086E38F0D0E946E2F80E792E00E941C2F8E010F5F1F4F9F
:201D4000E12CF80161917191819191918F010E942330F2E0EF1619F08EE692E002C08AE6D8
:201D600092E00E941C2FE39483E0E812EACFF394E8E0FE12BCCF84E692E00E941C2F06E3DB
:201D800016E0F12CF80161917191819191918F010E942330F2E0FF1619F082E692E002C0FE
:201DA0008EE592E00E941C2FF39483E0F812EACF88E592E00E941C2F609142067091430655
:201DC00080914406909145060E94233084E592E00E941C2F0E94450E2C960FB6F894DEBFDA
:201DE0000FBECDBFDF91CF911F910F91FF90EF90089582E592E00E941C2F80910706823029
:201E000091F038F4882361F08130A9F48CE492E00CC0833069F0883071F482E492E005C057
:201E20008FE492E002C089E492E00E941C2F0CC086E492E0FACF8DE392E00E941C2F8091DE
:201E4000070686500E946E2F8AE392E00E941C2F80910D068A5C0E946E2F80910B06813078
:201E600049F028F0823051F48BE292E005C085E392E002C080E392E00E941C2F80910906F8
:201E8000811103C086E292E002C081E292E00E941C2F80910A06811103C08CE192E002C078
:201EA00087E192E00E941C2F80910806813019F482E192E002C08DE092E00E941C2F80910A
:201EC0000E06813049F028F0823051F481E092E005C089E092E002C085E092E00E941C2FFC
:201EE00080911006813031F040F0823051F489EF91E005C08DEF91E002C085EF91E00E94DE
:201F00001C2F80910F06882329F0823039F48DEE91E002C081EF91E00E941C2F8AEE91E048
:201F20000E941C2F809119060E946E2F87EE91E00E941C2F6091150670911606809117061B
:201F4000909118060E94323084EE91E00E941C2F60911106709112068091130690911406E8
:201F60000E94323080EE91E00C941C2F1F93CF93DF93182FEB018DED91E00E941C2F812F52
:201F80000E946E2F8BED91E00E941C2FCE010E94102F88ED91E0DF91CF911F910C941C2F2B
:201FA000CF93DF93EC0188EC91E00E941C2FCE010E94102F84EC91E0DF91CF910C941C2F42
:201FC000BF92CF92DF92EF92FF920F931F93CF93DF93CDB7DEB768970FB6F894DEBF0FBED1
:201FE000CDBF8CE0ECE2F5E0DE011D9601900D928A95E1F7809128058430E9F040F48130DD
:20200000E9F080F0823009F58FE991E01CC0803179F018F4883049F018C0803291F080342C
:2020200021F013C08EEB91E00EC089EB91E00BC083EB91E008C08DEA91E005C086EA91E01F
:2020400002C089E991E00E941C2F8091B406837039F0BE01635F7F4FCE0101960E940E138F
:202060008091B40680FD05C08091B40681FF6DC01FC082E991E00E941C2F69817A818B8142
:202080009C810E94233080E991E00E941C2F6D817E818F8198850E94233080E991E00E94DC
:2020A0001C2F69857A858B859C850E942330DCCF89E891E00E941C2F9AE2E92E96E0F92E18
:2020C0008E010F5F1F4FB12C6801F70161917191819191917F0120853185428553850E9413
:2020E000EA339B01AC01F80160817181828193810E94E933F8016083718382839383F2E01C
:20210000BF120FC0209142063091430640914406509145060E94E933F80160837183828342
:2021200093830C5F1F4FF60160817181828193810E942330F2E0BF1621F087E891E00E94A0
:202140001C2FB39423E0B212BFCF8091B40682FF08C081E891E00E941C2F0E949F220E94B8
:202160006E2F8091B40683FF08C08CE791E00E941C2F0E94991C0E946E2F8091B40684FFF8
:202180000AC086E791E00E941C2F0E945C0443E062E00E942B2F82E791E00E941C2F689682
:2021A0000FB6F894DEBF0FBECDBFDF91CF911F910F91FF90EF90DF90CF90BF9008950E944E
:2021C000A21C0E94DB320E940A160E94111180E2E7E2F5E0DF011D928A95E9F781E080930A
:2021E000270578940E94701D0E94B0220E947B1D0E94F12E0E9445040E94FD2C0E941E1F74
:202200000E94DE150E946E220E94C2221092270510922A0510922B05109229050E945C2E04
:20222000E1CF87B1887F87B988B1876088B9ECE6F0E0808187608083E8E6F0E08081826000
:20224000808308951F920F920FB60F9211242F933F934F935F936F937F938F939F93AF93DF
:20226000BF93EF93FF9386B18095877099F080FF03C00E940A0C0EC0982F947021F0809177
:202280002A05826005C081FF05C080912A05886080932A05FF91EF91BF91AF919F918F91C9
:2022A0007F916F915F914F913F912F910F900FBE0F901F90189580E008951F93CF93DF93C4
:2022C000EC0110E0BE01812F0E946E31811102C087E009C08881882341F0CE010E94102F58
:2022E000CE010E94C8220E94350C1F5F123051F7DF91CF911F9108958F929F92AF92BF9297
:20230000CF92DF92EF92FF921F93CF93DF93CDB7DEB729970FB6F894DEBF0FBECDBF7C01B6
:2023200081E08987F7018181833479F034F4882349F0843209F040C008C0873431F08835F6
:20234000D9F503C00E94E00C1AC0F7019281911138C18334B1F01CF4843231F010C0873414
:2023600061F08835F9F00BC080912805887111F088E028C10E94E40C02C00E94F90E80E0B5
:2023800021C180912805823021F40E940A0C85E006C08111EDCF82E08093280584E00E947D
:2023A000AD0CEDCF80912805813049F783E00E94AD0C10922805E3CF909128059230C0F674
:2023C000893459F12CF4833251F0883489F08AC08E3409F46AC0823509F440C083C082E01F
:2023E0008987F70182818111ECC00E94680EC7CF8091BD0684FFE3C084E0809328050E94A6
:20240000590B809127058111BACF109228050E944813C7010E945D11B2CF82E08987F70171
:202420008281811107C0C7010E948B31C7010E94D00FA5CF8D3309F0C4C083E0F701E80FCE
:20244000F11D9081DF0113979C938F5F90819111F5CF8987C7010E944D3091CFF7018281ED
:20246000833509F0AEC08381843509F0AAC084818D3309F0A6C086818111A3C085E0898788
:202480008581843239F08A3239F0833209F099C082E003C081E001C08FEF0E946A3088E002
:2024A0000E94AD0C0E940A0C6ACF82E08987F7018281811113C010E0B701812F0E946E3165
:2024C000811104C087E00E94350C04C0B701812F0E94B60F1F5F123079F751CF911148CFC0
:2024E00011E001C010E0AE014B5F5F4FBE01675F7F4FC7010E940633811102C082E062C065
:20250000898521E0280F2987F701E80FF11D80818D3309F056C0112321F1822F90E0E22F80
:20252000F0E0D701AE0FBF1F3C91E81BF90BEE0DFF1D30832F5F3C913111F1CF2987C701E5
:202540000E94C82281113EC06D817E818F8198850E94CF370E943735862FB7010E9444300C
:202560000ECFAE014F5F5F4FBE01675F7F4FC7010E940633882311F28985F701E80FF11DC4
:20258000808181111EC0CD80DE80EF80F88420E030E04FE753E4C701B6010E94C63618166C
:2025A00084F089809A80AB80BC80C701B6010E943735862FB501A4010E94D53103C085E0B0
:2025C00001C083E029960FB6F894DEBF0FBECDBFDF91CF911F91FF90EF90DF90CF90BF9026
:2025E000AF909F908F900895CF93DF9324E0629FE00111248C0F9D1FFC0160817181828198
:2026000093810E946535C058D94F288139814A815B810E94CA34DF91CF910895FF920F93E0
:202620001F93CF93DF938B01EC01F12C6F2DC8010E94F4126993799389939993F39483E037
:20264000F812F4CFDF91CF911F910F91FF9008958091BD0682FF02C0289A01C028988091F6
:2026600028058C70A1F0809130018093440180913101809343018091B006880F8450819524
:202680008093420180916F00826080936F00089580916F008D7F80936F0080918100887FBC
:2026A00081608093810010922F018091B3068F3F21F490912B05992349F0909128059430CE
:2026C00029F090E00E94B83381E001C080E09091BD0692FF02C091E08927882311F0289A9C
:2026E0000895289808951F920F920FB60F9211242F933F934F935F936F937F938F939F9323
:20270000AF93BF93CF93DF93EF93FF9380912F018111EFC19BB180914401807E9F71892B56
:202720008BB98BB1837E90914301892B8BB98091420186BD82E085BD81E080932F017894D0
:202740008091560190915701892B09F0A4C08091340190913301981709F492C0E091340148
:2027600086E0E89FF0011124E85AFE4FF0935701E0935601838194819093890080938800B2
:20278000808191819093520180935101A281809153018A1771F1A093530181E1A89FD001BF
:2027A0001124A458BE4FB0935501A09354011D968D919D910D90BC91A02DB695A795979551
:2027C000879580933D0190933E01A0933F01B09340018093390190933A01A0933B01B093D6
:2027E0003C018093350190933601A0933701B0933801C0915401D09155018091300198815A
:20280000892780934401258189819A81AB81BC81022E04C0B695A795979587950A94D2F752
:202820008093450190934601A0934701B09348018D819E81AF81B885022E04C0B695A795B9
:20284000979587950A94D2F78093490190934A01A0934B01B0934C0189859A85AB85BC8551
:2028600004C0B695A795979587952A95D2F780934D0190934E01A0934F01B09350010BC088
:202880000E9448139FB7F89480912A05846080932A059FBF2EC10E94182D109243018091C8
:2028A000450190914601A0914701B091480140913501509136016091370170913801840F52
:2028C000951FA61FB71F8093350190933601A0933701B0933801E0915401F09155014585B8
:2028E000568567857089481759076A077B0768F524E0209343014585568567857089841BE5
:20290000950BA60BB70B8093350190933601A0933701B0933801208180912C0590912D05E4
:20292000A0912E05B0912F0525FF04C00197A109B10903C00196A11DB11D80932C0590938D
:202940002D05A0932E05B0932F058091490190914A01A0914B01B0914C01409139015091AA
:202960003A0160913B0170913C01840F951FA61FB71F8093390190933A01A0933B01B09372
:202980003C014585568567857089481759076A077B0778F520914301286020934301458513
:2029A000568567857089841B950BA60BB70B8093390190933A01A0933B01B0933C0120816A
:2029C0008091300590913105A0913205B091330526FF04C00197A109B10903C00196A11D7C
:2029E000B11D8093300590933105A0933205B093330580914D0190914E01A0914F01B091F2
:202A0000500140913D0150913E0160913F0170914001840F951FA61FB71F80933D0190936D
:202A20003E01A0933F01B09340014585568567857089481759076A077B0778F520914301C2
:202A40002061209343014585568567857089841B950BA60BB70B80933D0190933E01A093DC
:202A60003F01B093400120818091340590913505A0913605B091370527FF04C00197A10937
:202A8000B10903C00196A11DB11D8093340590933505A0933605B09337058091280584300E
:202AA00039F48091380590914301892380934301809151019091520101979093520180933B
:202AC0005101892B69F41092570110925601809134018F5F80933401863011F41092340192
:202AE000809131019091430189278093430110922F01FF91EF91DF91CF91BF91AF919F91B5
:202B00008F917F916F915F914F913F912F910F900FBE0F901F9018951F920F920FB60F9206
:202B200011248F939F939BB1809131018C71937E892B8BB915BC9F918F910F900FBE0F904B
:202B40001F901895FF920F931F93CF93DF931092310110923001C0E0D0E00C2F1C2F209132
:202B6000B10630E08C2F0C2E02C0359527950A94E2F720FF07C0F09031010E94E8328F29CE
:202B8000809331012091B20630E002C0359527951A95E2F720FF08C010913001802F0E949D
:202BA000F232812B809330012196C330D105A9F6DF91CF911F910F91FF9008950E94481399
:202BC0008BE2E0E0F1E0DF011D928A95E9F783E2E5E3F1E0DF011D928A95E9F710922E010C
:202BE00010922D01109234011092330181E08093320110922F010E94A2158BB1837E909128
:202C00003101892B8BB98BB18F7190913001892B8BB908958AB18C618AB9209A8AB1806E19
:202C20008AB9E1E8F0E080818F7E8083808188608083E0E8F0E080818C7F808380818F7014
:202C40008083EEE6F0E08081887F808314BC15BC8081816080830895CF93DF93C0912D014C
:202C6000D0912E012097B9F081E08093010160911701709118018091190190911A019B01C8
:202C8000AC010E940137698B7A8B8B8B9C8B10922E0110922D01DF91CF9108952F923F92D7
:202CA0004F925F926F927F928F929F92AF92BF92CF92DF92EF92FF920F931F93CF93DF9340
:202CC000CDB7DEB7E5970FB6F894DEBF0FBECDBF80912805807709F40AC220E030E0A90160
:202CE00060911701709118018091190190911A010E94C3348111FBC103C680912D0190913A
:202D00002E01892B09F4FAC180913301F6E0F89FF0011124E85AFE4FFE83ED8380910001AE
:202D2000828320912D0130912E013E872D87D9019596BC91BCA7F901F6A1FDA7D901979655
:202D4000BC91BEA7F901F0A5FFA720910A0130910B0140910C0150910D016CA57DA58B2F49
:202D60009F2F0E94E93368A779A78AA79BA720E030E0A9010E94C33487FF04C018A619A60B
:202D80001AA61BA620912301288F30912401398F409125014A8F509126015B8F80911B0189
:202DA0008C8F90911C019D8FA0911D01AE8FB0911E01BF8FE0912701E8A3F0912801F9A3EA
:202DC000209129012AA330912A013BA3409113014CA3509114015DA3809115018EA390913E
:202DE00016019FA320911F0130912001409121015091220128AB39AB4AAB5BAB3091170145
:202E000039834091180149872090190130901A01509112015F878CA58C8B9DA59D8BAEA5B8
:202E2000AE8BBFA5BF8B3EE3C32E33ECD32E3EE2E32E39E3F32E188A198A1A8A1B8A260156
:202E40003701EF85E111B4C3AD85BE8591962D913D914D915C919497C701B6010E940137E6
:202E60004B015C0120E030E040E05FE30E9401379B01AC0169817985C1010E94EA339B010F
:202E8000AC01C701B6010E9401379B01AC016C897D898E899F890E94E9338B018DAB9CABE0
:202EA000288D398D4A8D5B8D0E94C33487FF86C3288D398D4A8D5B8D6CA57DA58EA59FA58C
:202EC0000E94E9339B01AC010E94EA336B017C012C8D3D8D4E8D5F8D69817985C1010E94AD
:202EE000EA339B01AC01C701B6010E94CA346B017C0128A139A14AA15BA1688D798D8A8DC8
:202F00009B8D0E94C334882309F455C3B1E0BF87FC8DF9832D8D29872E8C3F8C088D198D2A
:202F20003A8D3DAB4B8D4CABA7019601688979898A899B890E94EA33688B798B8A8B9B8BB9
:202F4000A30192010E94C33487FDF2C328A539A54AA55BA5B8018DA99CA90E94C6361816CE
:202F60000CF4DCC389819985D1018093170190931801A0931901B0931A01FF85F09312018C
:202F80004090060150900701609008017090090198014DA95CA9C301B2010E94013769839E
:202FA0007A838B839C830E94B0346B017C01609102017091030180910401909105010E94A0
:202FC000B0344B015C01A70196010E94E9330E94373569877A878B879C87E985FA85AD8118
:202FE000BE81ED93FC93309709F4CDC320910E0130910F01409110015091110168897989D6
:203000008A899B890E94EA332B013C0129813A814B815C81C501B4010E94E9339B01AC01C1
:20302000C301B2010E94CA344B015C0129813A814B815C81C701B6010E94E933A50194014A
:203040000E94013760930E0170930F01809310019093110120EC31EE44E65EE4C501B40116
:203060000E9401370E94B0340E943735603DB7E07B078105910508F0ACC3ED81FE81158225
:20308000AD81BE8114967C936E93139780913201809333018F5F863009F4D4C38093320156
:2030A00020911301309114014091150150911601B8018DA99CA90E94C63618160CF0C5C312
:2030C000E0912D01F0912E01C801ADA9BCA985A396A3A7A3B0A789819A81AB81BC8180937A
:2030E000020190930301A0930401B09305019091340180913201981300CE02C40E94431F48
:203100001C0190932E0180932D01009709F4F8C38091010110912805882319F01092010177
:20312000BEC0809100018F5F853019F08093000102C010920001E091000121E12E9FF001A8
:203140001124E458FE4FF0932C01E0932B01D1018C91808311964D915D916D917C91149747
:2031600003E0440F551F661F771F0A95D1F7418352836383748315964D915D916D917C912B
:20318000189783E0440F551F661F771F8A95D1F7458356836783708719964D915D916D9159
:2031A0007C911C9793E0440F551F661F771F9A95D1F741875287638774871D966D917D91BE
:2031C0008D919C9150976B017C0123E0CC0CDD1CEE1CFF1C2A95D1F7C586D686E786F08AC6
:2031E0000E94633560930201709303018093040190930501F10125A136A147A150A50E9449
:20320000CA349B01AC016093060170930701809308019093090160E070E080EA9FE30E94FB
:20322000CA3460930A0170930B0180930C0190930D0110920E0110920F011092100110927A
:203240001101812F8077E1F060911F01709120018091210190912201609317017093180113
:203260008093190190931A019B01AC010E940137D10151966D937D938D939C9354970FC0EE
:20328000F10161897289838994890E948E3760931701709318018093190190931A01109293
:2032A0001301109214011092150110921601D10191968D909D90AD90BC909497A5019401A0
:2032C00060E070E080E09FE30E94CA342B013C011077F101C5A0D6A0E7A0F0A4112309F4D3
:2032E0004DC0F2E0F0931201D10151962D913D914D915C9154972D833E834F8358870E949A
:2033000001379B01AC01C701B6010E94E9332B013C0120E030E0A9010E94C33487FF1DC0D0
:20332000A5019401C501B4010E94EA33A70196010E9401379B01AC016D817E818F8198859C
:203340000E94E9330E948E3760931F01709320018093210190932201D7CC4092130150922B
:203360001401609215017092160110921F01109220011092210110922201C6CC10921201C2
:20338000C0922301D0922401E0922501F09226010E94531F4B015C0160931F0170932001FB
:2033A00080932101909322019B01AC010E94013769837A838B839C8300912D0110912E01CA
:2033C000D80195962D913D914D915C91989729873A874B875C8751962D913D914D915C91FF
:2033E00054972D833E834F8358879B01AC016D817E818F8198850E94E9339B01AC01C30192
:20340000B2010E9401379B01AC0169857A858B859C850E94EA3320E030E040E05FE30E94E5
:2034200001376B017C0120E030E0A9010E94C63618160CF0ACC029853A854B855C85C70197
:20344000B6010E94C33487FF8EC0F801858C968CA78CB0A029813A814B815C81C501B40110
:203460000E94E9339B01AC01C301B2010E94013760932701709328018093290190932A0122
:20348000A70196010E94C33487FF3DC0C501B4010E948E3760931B0170931C0180931D018F
:2034A00090931E01A50194016D817E818F8198850E94C334811104C0F1E0F093120124CC2F
:2034C0002D813E814F815885C501B4010E94E9339B01AC01C301B2010E9401379B01AC01B6
:2034E000609123017091240180912501909126010E94E933609323017093240180932501DC
:203500009093260101CCC0922301D0922401E0922501F0922601C0922701D0922801E092DF
:203520002901F0922A01D80191966D917D918D919C9194979B01AC010E94EA33A7019601EB
:203540000E94013729813A814B815C810E94EA330E948E3760931B0170931C0180931D01FD
:2035600090931E01D1CBB2E0B09312018091170190911801A0911901B0911A0180931B014C
:2035800090931C01A0931D01B0931E01BDCB10922301109224011092250110922601809280
:2035A0001B0190921C01A0921D01B0921E01ACCBE13061F041C0E2E0EF87AACCA50194013C
:2035C00069817985C1010E94EA337CC0A70196016C8D7D8D8E8D9F8D0E9401379B01AC019A
:2035E0006C897D898E899F890E94E9338B018DAB9CAB28A139A14AA15BA10E94C33487FF1F
:2036000093CC28A139A14AA15BA16C897D898E899F890E94E9332C8D3D8D4E8D5F8D0E94DD
:20362000CA346B017C0108A119A15AA15DAB8BA18CAB92E09F8778CCAD85BE8591962D91A4
:203640003D914D915C919497C701B6010E9401374B015C019B01AC0169817985C1010E940F
:20366000C63618169CF520E030E040E05FE3C501B4010E9401379B01AC0169817985C101D5
:203680000E94E9339B01AC01C701B6010E9401379B01AC016C897D898E899F890E94E93389
:2036A0008B018DAB9CAB2CA13DA14EA15FA10E94C63618165CF4A501940169817985C10164
:2036C0000E94E933698379871C012ECC2CA13DA14EA15FA16C897D898E899F890E94E93397
:2036E0009B01AC010E94EA336B017C0128A939A94AA95BA969817985C1010E94EA339B012A
:20370000AC01C701B6010E94CA346B017C010CA11DA1BEA1BDABEFA1ECAB06CC2EE333EC99
:203720004EE259E3C301B2010E94EA332B013C01288939894A895B89C301B2010E94E9331F
:203740006B017C012CA13DA14EA15FA1B8018DA99CA90E94C63618167CF089819985D10180
:203760008093170190931801A0931901B0931A013F853093120104CC0C8B1D8B4DA94E8BBF
:203780005CA95F8B5ECB80912805807709F42ECC10921701109218011092190110921A01F7
:2037A00010920E0110920F011092100110921101C0920201D0920301E0920401F092050185
:2037C000A3019201C701B6010E94CA34AD85BE8570C0603AFFE07F078105910510F4E1E00E
:2037E00009C06034FFE17F078105910510F4E2E001C0E3E0AD81BE811596EC93AD81BE819C
:2038000015962C911597022E04C096958795779567950A94D2F7E985FA8502C0EE0FFF1F20
:203820002A95E2F7ED93FC9361157105F1E08F07910508F425CC2FEF3FEFED81FE8134831B
:20384000238324CC109232012BCC20E030E0A901B8018DA99CA90E94C63618160CF049C047
:2038600010921701109218011092190110921A0110920E0110920F01109210011092110190
:20388000C0920201D0920301E0920401F092050100912D0110912E0120910601309107015E
:2038A0004091080150910901C701B6010E94CA34D80195966D937D938D939C939897E59617
:2038C0000FB6F894DEBF0FBECDBFDF91CF911F910F91FF90EF90DF90CF90BF90AF909F90E8
:2038E0008F907F906F905F904F903F902F900C94A82210922E0110922D010E942F1FF7CB82
:20390000E5960FB6F894DEBF0FBECDBFDF91CF911F910F91FF90EF90DF90CF90BF90AF905B
:203920009F908F907F906F905F904F903F902F9008959091D3018091D401891708F48058E3
:20394000891B0895E0ECF0E08081826080831092C50080E18093C400E1ECF0E08081806186
:2039600080838081886080838081806880830895E091D20191E09E0F903409F490E020918B
:20398000D101921305C020912A0524FFF8CF0895F0E0E95BFA4F80839093D2018091C1005C
:2039A00080628093C10008951F920F920FB60F9211248F939F93EF93FF938091D101E82F65
:2039C000F0E0E95BFA4F90819093C6008F5F803409F480E08093D1019091D201891305C057
:2039E0008091C1008F7D8093C100FF91EF919F918F910F900FBE0F901F9018959091D30159
:203A00008091D401891761F0E92FF0E0E957FA4F80819F5F903809F490E09093D301089596
:203A20008FEF08951F920F920FB60F9211242F933F934F935F936F937F938F939F93AF936C
:203A4000BF93EF93FF938091C6008F33A9F050F4883109F1813211F59FB7F89480912A05FC
:203A6000886015C0803471F08E37C1F49FB7F89480912A0582600BC09FB7F89480912A0509
:203A8000816005C09FB7F89480912A05806280932A059FBF14C00E940A0C11C0E091D40139
:203AA00091E09E0F903809F490E02091D301921731F0F0E0E957FA4F80839093D401FF9180
:203AC000EF91BF91AF919F918F917F916F915F914F913F912F910F900FBE0F901F901895AF
:203AE0008091D4018093D3010895E0EBF0E080818F7780830895239A259A0C94751DCF920B
:203B0000DF92EF92FF926A017B01811106C0FF90EF90DF90CF900C94751D813011F42D985A
:203B200001C02D9A83E88093B0008091B100887F82608093B10020E030E84BEB55E4C70111
:203B4000B6010E94C33487FD1AC020E030E84BEB55E4C701B6010E94E9336B017C0120E00A
:203B600030E84BEB55E40E94C63618165CF4C12C80E8D82E8BEBE82E85E4F82E03C0C12C7C
:203B8000D12C76012BE734E14EE25DE3C701B6010E94013720E030E040E05FE30E94EA3390
:203BA0000E94A0350E9437356093B300FF90EF90DF90CF900895CF93DF9300D000D01F923C
:203BC000CDB7DEB7909128059230A9F04A835B836C837D8389830E94DE2E4A815B816C813B
:203BE0007D8189810F900F900F900F900F90DF91CF910C947F1D0F900F900F900F900F907B
:203C0000DF91CF9108954F925F926F927F928F929F92AF92BF92CF92DF92EF92FF920F93E9
:203C20001F93CF93DF931091F301111101C012E111500091F101101709F4EFC089E2189FBA
:203C4000E0011124CB50DE4F8D889E88AF88B88C69A17AA18BA19CA19B01AC010E94EA33BA
:203C60002DA13EA14FA158A50E9401376B017C019B01AC01B401C5010E94C33487FF02C042
:203C800064017501A601B701498B5A8B6B8B7C8B111101C012E177247A94710E701619F0A7
:203CA00029E2622E27C08091F401081351C00E942C164EC0679C800111240B501E4F71105C
:203CC00002C092E1792E7A948091F401781202C00E942C16F801C588D688E788F08CA7018D
:203CE000960161897289838994890E94C334811106C0E8018091F1017812DCCF29C0F8012B
:203D000061A172A183A194A19B01AC010E94EA33F80125A136A147A150A50E94013729892E
:203D20003A894B895C890E94EA334B015C01A70196010E94C334F80187FF05C0818A928A5C
:203D4000A38AB48AD6CFC18AD28AE38AF48AD1CF6090F101F9E26F9E800111240B501E4FD9
:203D600077247394760C82E1781201C0712C5090F30189E2482E751409F44DC0479CE001C8
:203D80001124CB50DE4FF80181889288A388B488C988DA88EB88FC88A7019601C501B401BF
:203DA0000E94C33487FF23C0F80161A172A183A194A19B01AC010E94EA33F80125A136A1FC
:203DC00047A150A50E9401379B01AC01C501B4010E94EA334B015C01A70196010E94C33428
:203DE00087FF05C0898A9A8AAB8ABC8A672C2D893E894F89588D69897A898B899C890E9429
:203E0000C334811101C0672C7394F2E17F1201C0712C8E01B0CF6092F101DF91CF911F918A
:203E20000F91FF90EF90DF90CF90BF90AF909F908F907F906F905F904F9008958CE1E5ED72
:203E4000F1E0DF011D928A95E9F71092F4011092F30181E08093F2011092F101089590911D
:203E6000F4018091F301891769F081E0890F823109F480E02091F101921302C08093F10137
:203E80008093F40108958091F4019091F301981739F029E2829FC00111248B509E4F089503
:203EA00080E090E00895E091F401EF5FE23109F4E0E08091F301E81761F089E2E89FF001D9
:203EC0001124EB50FE4F61897289838994890C948E3760E070E0CB01089581E02091F401B2
:203EE0009091F201291380E008952F923F924F925F926F927F928F929F92AF92BF92CF92BA
:203F0000DF92EF92FF920F931F93CF93DF93CDB7DEB7AD970FB6F894DEBF0FBECDBF142F0F
:203F2000052F6B8F7C8F822E2091F30139E2239F10011124F101EB50FE4F1F0115861686FF
:203F40001786108A15A216A217A210A6108249E956E766E97EE741A352A363A374A35C0144
:203F600040E8E42E46E0F42E9E01235F3F4F38A32F8F85ED91E09E8F8D8F6F01FE01319615
:203F8000FAA3E9A3912CF50161917191819191915F01F70120813181428153810E94013701
:203FA0000E94D136EF8DF8A16193719381939193F8A3EF8FED8DFE8D419051906190719051
:203FC000FE8FED8F64197509860997092B013C0197FF07C0442455243201461A570A680AA1
:203FE000790AF6014182528263827482F1012585368547855089421653066406750610F43F
:2040000029013A01F101458656866786708A0E946535F70120813181428153810E94CA34FD
:204020002B013C01E9A1FAA16193719381939193FAA3E9A320E030E0A9010E94C33487FFC0
:204040000AC0F1019081892D9DA70E94F2329DA5892BF1018083A3019201C301B2010E9498
:204060000137F10125A136A147A150A50E94EA33F10165A376A387A390A79394F4E0EF0E71
:20408000F11C24E0C20ED11C33E093127CCF0E948E376B017C01F10165A376A387A390A78B
:2040A00085859685A785B089892B8A2B8B2B09F4FCC120E030E0A901612F702F8B8D9C8D73
:2040C0000E94C33487FD21C0882061F0A7019601612F702F8B8D9C8D0E940137162F072FE5
:2040E0008B8F9C8F20E030E040E85FE3612F702F8B8D9C8D0E94C33487FF0DC010E000E0D5
:2041000030E83B8F8FE38C8F06C019E906E7F6E9FB8F2EE72C8FA701960160E070E080E80B
:204120009FE30E94CA3469A77AA78BA79CA7E1EEF1E0FAA3E9A32CE836E038A32F8FCE015C
:204140000D969A8F898FFE013196FE8FED8FC12CD12C7601ED8DFE8D80809180A280B380E0
:2041600020E030E0A901C501B4010E94C334882309F47FC029A53AA54BA55CA5C501B40171
:204180000E9401374B015C01ED8DFE8D60837183828393839B01AC0160E070E080E89FE3E2
:2041A0000E94CA342B013C01E89477F8EF8DF8A12081318142815381C301B2010E940137BB
:2041C0006BA37CA38DA39EA39B01AC01612F702F8B8D9C8D0E94C33487FF06C01BA30CA336
:2041E000FB8DFDA32C8D2EA3F101F1A1FB8FF101F2A1FC8FF101F3A1FFA3F101F4A1F8A7A1
:20420000EF8DF8A12485358546855785C301B2010E9401373B018C019B01AC016B8D7C8D1B
:204220008FA198A50E94C33487FF04C06B8C7C8C0FA118A5C301D801F10181A392A3A3A394
:20424000B4A3E9A1FAA12081318142815381C501B4010E9401379B01AC01C701B6010E9439
:20426000E9336B017C011BA10CA1FDA1FB8F2EA12C8F8D8D9E8D04969E8F8D8FE9A1FAA1D1
:204280003496FAA3E9A32F8D38A12C5F3F4F38A32F8FE98DFA8D8E179F0709F05BCF909158
:2042A000F3018091F401981306C0F101118A128A138A148A0BC024EA30E74DE75FE3C70101
:2042C000B6010E94C636181634F4F101118E128E138E148E5BC024EA30E74DE75FEBC70139
:2042E000B6010E94C636181644F034EAC32E30E7D32E3DE7E32E3FEBF32EA701960160E0E1
:2043000070E080E89FE30E94E93320E030E040E05FE30E9401370E948E376B017C01209158
:20432000B5063091B6064091B7065091B806F10161A172A183A194A10E940137A70196019F
:204340000E9401374B015C01A701960160E070E080E89FE30E94E9339B01AC01C501B4019F
:204360000E94CA346B017C0120E030E0A9010E94C33487FF04C0C12CD12CE12CF12CA6015C
:20438000B701F101418F528F638F748F212F302F4B8D5C8D612F702F8B8D9C8D0E94013713
:2043A000162F072FF82EE92E862F902FAF2DBE2DF101858F968FA78FB0A3A18CB28CC38C9C
:2043C000D48C6090ED017090EE018090EF019090F0019301A401612F702F8F2D9E2D0E940E
:2043E000C33487FD0BC09301A401B501C6010E94C33487FD11C0530164010EC0212F302F9D
:204400004F2D5E2DB501C6010E94C33487FD04C0A12EB02ECF2CDE2CC501D601F101858BE6
:20442000968BA78BB08F8CE0FE013196A1EEB1E001900D928A95E1F7812F902FAF2DBE2D3B
:204440008093ED019093EE01A093EF01B093F0018CE0FE013D96A5EDB1E001900D928A9542
:20446000E1F78091F2018093F3018F5F823109F480E08093F201AD960FB6F894DEBF0FBE57
:20448000CDBFDF91CF911F910F91FF90EF90DF90CF90BF90AF909F908F907F906F905F90BB
:2044A0004F903F902F900C94031EAD960FB6F894DEBF0FBECDBFDF91CF911F910F91FF9095
:2044C000EF90DF90CF90BF90AF909F908F907F906F905F904F903F902F90089580912C056A
:2044E00090912D05A0912E05B0912F058093D5019093D601A093D701B093D8018091300540
:2045000090913105A0913205B09133058093D9019093DA01A093DB01B093DC0180913405FF
:2045200090913505A0913605B09137058093DD019093DE01A093DF01B093E001089580915F
:20454000F3019091F401891708F48E5E891B08950E942C168091F4018093F1010C94031ED8
:204560008FE3E7E0F6E0DF011D928A95E9F76AE276E080E00E94A031811103C087E00C94CD
:20458000350C08956CE275E08EE196E00C940E132F923F924F925F926F927F928F929F922C
:2045A000AF92BF92CF92DF92EF92FF920F931F93CF93DF93CDB7DEB7AB970FB6F894DEBF14
:2045C0000FBECDBF98A38F8F89E3E6E4F6E0DF011D928A95E9F78AE0E7E0F6E0A7E4B6E067
:2045E00001900D928A95E1F71D8E212C312CA12CB12C19A2512C1E8E66246394712C08E0AB
:20460000402E9924939485E0882E8D8DEF8DF8A1E80FF11D0081002309F48AC29FEB900FE3
:204620009A3110F00C94C32C8F5F8D8FAE01475E5F4FBE01635E7F4F8F8D98A10E94063396
:20464000882311F40C94C52CC98CDA8CEB8CFC8CC701B6010E94CF370E943735162F70E095
:2046600080E090E00E9465359B01AC01C701B6010E94E93320E030E048EC52E40E94013754
:204680000E9464370E943735073421F00D3409F450C192C1183209F432C1E8F4143160F432
:2046A000113108F0D7C0143009F45AC008F48EC01A30D9F10C94D12C1C31B9F128F4163179
:2046C00008F4F7C00C94D12C1E3179F1163209F47DC00C94D12C1D3309F40BC1A8F41533B5
:2046E00009F461C040F41B3209F4ECC0113309F4E9C00C94D12C1C3310F00C94D12C165396
:2047000010934D0689E000C11C3540F41A3508F0B0C0103509F49BC00C94D12C1C3529F099
:204720001F3508F4BDC00C94D12C6115710531F4BE8DB1110C94C72CE1E0EE8F1C3199F04A
:2047400038F4143069F01A3009F0DBC082E02CC0153349F11C3559F11E3109F0D2C013C09A
:2047600090924606CEC06115710549F06A30710511F00C94D12C24E02093460609C0F3E0CB
:20478000F093460605C06115710521F48092460680E0BFC06A30710511F00C94D12C36E083
:2047A00030934606F5CF87E080934606AAC06115710549F06A30710511F00C94D12C99E0AA
:2047C00090934606E5CF40924606E2CFAE8DA1110C94C72CB2E0BE8F123089F028F411237D
:2047E00059F0113081F08FC0163281F0103579F1133009F088C007C01092470684C0EE8D0E
:20480000E093470680C0109347067DC06E317105B1F048F46431710511F00C94D12CF4E0FC
:20482000F093470612C06832710561F06233710511F00C94D12C37E03093470606C08092CD
:20484000470603C026E02093470681E062C04092470659C0123129F0133139F010924B06CB
:2048600002C090924B0682E04FC082E080934B064BC06115710549F41A3519F410924A064A
:2048800002C090924A0683E044C06A30710511F00C94D12C1A3511F40C94D12C84E039C081
:2048A0001D3519F49092480602C01092480685E02BC0143119F49092490602C010924906B1
:2048C00086E022C08E8D81110C94C72C113331F410924C0688E093E09E8F1BC06A30710500
:2048E00011F00C94D12C90924C0688E0A3E0AE8F10C0672B11F00C94D12C8AE00AC087E0E3
:2049000003C080E001C081E0672B19F087E10C94E42CF30102C0EE0FFF1F8A95E2F7CF0106
:204920009F012A213B21232B09F443C085E10C94E42C672B59F7163018F4133058F017C036
:20494000183010F40C94D12C1A3000F11E3159F00C94D12C123039F01E3129F0111120C029
:2049600090924E061DC082E080934E0619C0143029F0153039F09092500606C082E08093C4
:20498000500602C0109250068CE00BC0193021F082E080934F0602C010924F068DE001C0C5
:2049A0008BE0930102C0220F331F8A95E2F7C901B8CFA82AB92A29CE802F992787FD9095A6
:2049C000A92FB92FFC01E654F109E531F10508F0E8C7EE5AFF4F0C941C38C0925106D0929E
:2049E0005206E0925306F092540680E07FC0C0925506D0925606E0925706F092580639A125
:204A0000316039A381E072C0C0925906D0925A06E0925B06F0925C0689A1826089A382E0D2
:204A200065C0C0925D06D0925E06E0925F06F092600699A1946099A383E058C01093610628
:204A400084E054C0C701B6010E9432356093620670936306809364069093650685E046C019
:204A6000C0926606D0926706E0926806F092690686E03CC0C0926A06D0926B06E0926C06FD
:204A8000F0926D0687E032C0C0926E06D0926F06E0927006F092710688E028C0C09273062F
:204AA000D0927406E0927506F0927606A52DA1605A2E8AE01BC0C0927706D0927806E0926E
:204AC0007906F0927A06B52DB2605B2E8BE00EC0C0927B06D0927C06E0927D06F0927E06ED
:204AE000E52DE4605E2E8CE001C089E08301082E02C0000F111F0A94E2F7980122213321DC
:204B0000232B09F046C721E633E002C0359527958A95E2F720FF09C020E030E0A901C7017D
:204B2000B6010E94C33487FD36C7202A312A6DCD552029F03E8D311102C082E08E8F25FEC6
:204B40000EC08091620690916306A0916406B091650680389649A849B1050CF01EC780910D
:204B60004806813031F4FE8DF230A1F520FE1FC731C08091080681112DC020FE1BC0809131
:204B80004906813039F523E333E34BEC51E4609151067091520680915306909154060E9437
:204BA00001376093510670935206809353069093540610C08091150690911606A0911706A8
:204BC000B09118068093510690935206A0935306B093540630FC10C080911106909112060B
:204BE000A0911306B091140680936E0690936F06A0937006B093710680914606813031F45B
:204C000026FC02C08CE1E0C6E89426F880914B06882341F0813061F019A682E088A791E002
:204C20009FA30BC022E029A731E038A71FA205C0A1E0A9A718A6B2E0BFA38091490681308B
:204C400021F0EE8DE33091F52AC0B3E7EB2EB6E0FB2E00E010E0C52CD12CC601002E02C05E
:204C6000959587950A94E2F780FF10C023E333E34BEC51E4D7016D917D918D919C910E94CF
:204C80000137F70160837183828393830F5F1F4FF4E0EF0EF11C03301105F9F6D2CF80914E
:204CA0004C06813019F424E0521279C68CE0EAE2F6E0DE011D9601900D928A95E1F7B1FCC9
:204CC00009C0309146063F8F3230B9F0383009F4B0C015C180914D06873010F08DE174C6B7
:204CE00090910D06981769F3BE01635F7F4F0E94A031882309F465C6E4CF511002C08AE19F
:204D000063C6C10180759927892B09F47BCF609166067091670680916806909169060E947C
:204D2000CF370E9437356730C8F680916106843129F0823009F035C627FC33C68FEA28223F
:204D4000662319F061506F8F03C090914D069F8FBE016F5F7F4F8F8D0E94A031882309F41B
:204D600030C64090610660904206709043068090440690904506DE0111967D01F3E7CF2EE5
:204D8000F6E0DF2EAEE1AA2EA6E0BA2E00E010E0E52DF0E0FEA3EDA38DA19EA1002E02C01B
:204DA000959587950A94E2F780FF33C0F4E14F1226C0D50158962D913D914D915C915B979B
:204DC0006D917D918D919C910E94E933F60120813181428153810E94E933D7016D937D9337
:204DE0008D939C9313970230A1F4A40193010E94E933F70160837183828393830AC0F60151
:204E000080819181A281B381F70180839183A283B3830F5F1F4FF4E0EF0EF11C24E0C20E30
:204E2000D11C34E0A30EB11C0330110509F0B4CF0FC1552009F463CF609042067090430639
:204E4000809044069090450603E716E0EEE1CE2EE6E0DE2E5E018DE0A80EB11CE12CF12C97
:204E6000A52DB0E0B8A3AF8F8F8D98A10E2C02C0959587950A94E2F780FF26C0F50120812D
:204E8000318142815381D6016D917D918D919C910E94E933F80120813181428153810E9458
:204EA000E933D8016D937D938D939C931397B2E0EB1214C0A40193010E94E933F8016083BE
:204EC0007183828393830AC0F601808D918DA28DB38DF80180839183A283B383FFEFEF1A06
:204EE000FF0A0C5F1F4F24E0C20ED11C34E0A30EB11C83E0E816F10409F0B6CFA8C09E8D16
:204F0000933059F4AF8DA53009F48FC0A73009F499C0A33009F09BC080C0552099F34090BF
:204F20004A068090420690904306A0904406B09045067EE1C72E76E0D72E03E716E03E018D
:204F4000BDE06B0E711CE12CF12CE52DF0E0FEA3EDA38DA19EA10E2C02C0959587950A9424
:204F6000E2F780FD0BC0F60180819181A281B381F80180839183A283B3833EC0FF8DF73093
:204F8000D9F1411028C0D60158962D913D914D915C915B97F30160817181828193810E9480
:204FA000EA33D8012D913D914D915C910E94EA33F8016083718382839383F2E0EF121CC04B
:204FC000A50194010E94EA33D8016D937D938D939C93139711C0F601208131814281538143
:204FE000D8016D917D918D919C910E94EA33F8016083718382839383FFEFEF1AFF0A24E0D3
:20500000C20ED11C0C5F1F4F34E0630E711C83E0E816F10409F09DCF75CF511001C01E8E1B
:20502000BE016F5F7F4F86E007C0511001C01E8EBE016F5F7F4F87E00E94A031882309F43D
:20504000C0C405C080914706823008F0ACC41F8E10914706183041F4552009F4B3C19E8D66
:20506000913009F0A2C48BC2AE8DA23009F0AAC11123D9F020E030E0A90160915106709152
:20508000520680915306909154060E94C334882309F48DC4143028F4123058F4113029F0F9
:2050A0006EC2183008F44DC16AC2511068C21E8E8CC1552009F423CEFFA1EF2FF0E0FEA32C
:2050C000EDA338A5232F30E03BA72AA781E090E03C0108A402C0660C771C0A94E2F70FA0A7
:2050E00002C0880F991F0A94E2F7682A792A852D90E086219721892B09F45BC4CF01880F3B
:20510000991F880F991FFC01EA5BF94FDC01A95FB94F57962D913D914D915C915A9765A5D2
:2051200076A587A590A90E94E9336B017C018AA59BA5880F991F880F991FFC01EA5BF94FB1
:20514000DC01A95FB94F57962D913D914D915C915A9765A576A587A590A90E94E9334B0199
:205160005C0127FE40C0E89427F82091730630917406409175065091760660911E067091EE
:205180001F0680912006909121060E94C334811120C12091770630917806409179065091C1
:2051A0007A06609122067091230680912406909125060E94C33481110CC120917B063091BA
:2051C0007C0640917D0650917E06609126067091270680912806909129060E94C33481118F
:2051E000F8C081E2F1C3F9A14F2E512C64207520672809F4E0C321EF22228091490681309F
:2052000009F45AC00AA51BA5000F111F000F111F065B194FD8011B962D913D914D915C91E0
:205220001E97C501B4010E94E9332B013C01ADA0BEA0AA0CBB1CAA0CBB1CF501E65BF94FD3
:205240005F012385348545855685C701B6010E94E933A30192010E94C3336B017C01D8011A
:205260001B962D913D914D915C911E97F50163857485858596850E94C3334B015C01609341
:205280006A0670936B0680936C0690936D069B01AC01C701B6010E94E9336B017C01E89424
:2052A000F7F82AE037ED43EA5BE3C701B6010E94C63618164CF163C185E5682E86E0782EAE
:2052C00000E010E0C201002E02C0959587950A94E2F780FF10C023E333E34BEC51E4D301E3
:2052E0006D917D918D919C910E940137F30160837183828393830F5F1F4FF4E06F0E711CDD
:2053000003301105F9F67ECF20E030E040E05FE3C701B6010E94C63618160CF462CF2FE605
:2053200032E143E85AE3C501B4010E9401379B01AC01C701B6010E94C63618160CF451CFE9
:205340001EC1552009F4DBCC2091730630917406409175065091760660911E0670911F060C
:2053600080912006909121060E94C334811107C120917706309178064091790650917A069D
:20538000609122067091230680912406909125060E94C3348111F3C020917B0630917C06F0
:2053A00040917D0650917E06609126067091270680912806909129060E94C334882309F419
:2053C00010CFDDC02E8D2111DAC0C1018E7D9C7FD9C0809149068130B1F423E333E34BEC40
:2053E00051E460916A0670916B0680916C0690916D060E94013760936A0670936B068093CA
:205400006C0690936D0640906A0650906B0660906C0670906D0620E030E040E850E4C301EE
:20542000B2010E940137A30192010E9401372B013C01A7019601C701B6010E9401379B0131
:20544000AC01C301B2010E94E9332B013C01A5019401C501B4010E9401379B01AC01C30164
:20546000B2010E94E9332B013C0120E030E0A9010E94C33487FDA7C2C301B2010E948E3734
:205480002B013C01A5019401C701B6010E94C3339B01AC01C301B20190580E94CA342B01DD
:2054A0003C0180914706833021F477FA709477F8709480916A0690916B06A0916C06B091AA
:2054C0006D0689A39AA3ABA3BCA320E030E0A901BC01CD010E94C33487FF11C077FA709499
:2054E00077F8709489A19AA1ABA1BCA1B05880936A0690936B06A0936C06B0936D060DA103
:205500001EA1000F111F000F111F065B194FA3019201C501B4010E9401379B01AC01C701E8
:20552000B6010E94E93320E030E040E05FE30E940137D8011B966D937D938D939C931E970C
:205540000AA51BA5000F111F000F111F065B194FA3019201C701B6010E9401379B01AC01BC
:20556000C501B4010E94EA3320E030E040E05FE30E940137F8016387748785879687C101DC
:205580008E7D907E892B09F018C28091620690916306A0916406B091650680931A069093CB
:2055A0001B06A0931C06B0931D0680914806809308068091510690915206A0915306B091E3
:2055C00054068093150690931606A0931706B0931806C0906E06D0906F06E0907006F09054
:2055E0007106A7019601609111067091120680911306909114060E94C3348823C1F0809169
:205600001006882321F0B701A6010E94DB1D80916E0690916F06A0917006B0917106809332
:20562000110690931206A0931306B093140680917206809319068091500690911006981767
:2056400071F0409111065091120660911306709114060E94DB1D80915006809310068091A8
:205660004F0690910F06981731F00E94FA2E80914F0680930F0680914606813051F4609133
:2056800066067091670680916806909169060E94FA0A80914B0680930B0680914906809382
:2056A00009063E8D3330F9F480914C0680930C06813089F480917B0690917C06A0917D0621
:2056C000B0917E068093420690934306A0934406B093450608C010924206109243061092F4
:2056E00044061092450680914D0690910D06981759F080930D068CE0FE013D96AAE2B6E05D
:2057000001900D928A95E1F780914A0680930A068091460690E0FC013297E830F10508F045
:205720004BC0E959FF4F0C941C38BE016F5F7F4F8F8D0E94543080910D069F8D89133CC055
:205740008CE0FE013196AAE2B6E01AC0AE8DAA2349F020E040E050E060E87FEB83E796E0F8
:205760000E94AD0720E040E050E060E87FEBCE0101960E94AD078CE0FE013196AEE1B6E0BE
:2057800001900D928A95E1F717C06EE176E086E003C06EE176E087E00E9454300DC08CE0D2
:2057A000E3E7F6E0A6E3B6E0EBCF8CE0E6E3F6E0DF011D928A95E9F7809147068093070659
:2057C000883009F498C0BE8DB23009F094C090E08830910508F086C0FC01E159FF4F0C9421
:2057E0001C3820E040E050E060E87FEB0AC0409115065091160660911706709118062091C2
:20580000080683E796E00E94AD076CC0C0901506D0901606E0901706F090180600916A0605
:2058200010916B0620916C0630916D0681E08F93E9A5EF93F8A5FF9315C0C0901506D0909D
:205840001606E0901706F090180600916A0610916B0620916C0630916D061F9289A58F9396
:2058600098A59F938FA0A090080645E556E063E776E08EE196E00E94FB070F900F900F90E6
:2058800031C040911506509116066091170670911806E12C0AC04091150650911606609150
:2058A000170670911806EE24E39400E015C040911506509116066091170670911806E12C4B
:2058C0000AC040911506509116066091170670911806EE24E39401E02091080683E796E0DF
:2058E0000E946C0B8CE0E3E7F6E0AEE1B6E001900D928A95E1F780914E0680930E06882300
:2059000009F45DC00E94DE2E90910E0680912805913069F48230A1F19FB7F89480912A05C8
:20592000886080932A059FBF0E94312D29C091E09093070610920B0610920A061092080640
:2059400010920D061092100610920F068230A9F0BE01635F7F4F80E00E94A031882389F191
:205960008CE0FE013D96AAE2B6E001900D928A95E1F70E94751D0E94EF2E87E00E94AD0CEB
:2059800010920E061CC081E01FC082E01DC088E11BC089E119C084E017C08BE115C085E28C
:2059A00013C084E111C08EE10FC08FE10DC086E10BC080E209C083E207C084E205C080E04F
:2059C00003C087E001C082E2AB960FB6F894DEBF0FBECDBFDF91CF911F910F91FF90EF90C2
:2059E000DF90CF90BF90AF909F908F907F906F905F904F903F902F9008953D98459A0895A5
:205A000010927F069091BD0697FD03C090E290937F06882331F080917F0690E28927809373
:205A20007F06089586B1807290917F0689270895809139058130A1F40E94122D882381F096
:205A4000109239058CE0ECE2F5E0AAE3B5E001900D928A95E1F780912A05806480932A05A8
:205A60000895EF92FF920F931F93CF93DF93D1E008E080E2F82E10E190E4E92EC0912B0531
:205A8000CC2389F1D0932805C1FF02C081E00FC0C2FF02C082E00BC0C3FF02C083E007C0FD
:205AA000C4FF02C084E003C0C5FF03C085E00E94830CC0FD08C08FB7F89490912B051092D3
:205AC0002B058FBF10C081E00E94AD0C9FB7F89480912A058F7E80932A059FBF80912A05AD
:205AE00084FFFCCFE8CFC0912A05CC2309F4BCC0C4FF04C081E080932705CEC0C0FF0AC07B
:205B00000E94E00F9FB7F89480912A058E7F80932A059FBF8C2F887609F43CC08091280535
:205B2000882349F0982F9C7769F1883021F40E942C16D093290580912805811103C092E006
:205B400090932905C6FF09C0883011F4E092280580912905886080932905C3FF05C080910A
:205B6000280585FF10932805C5FF0CC086E00E94AD0C8091290581FDC4608460809329054D
:205B8000F09228059FB7F89480912A05877980932A059FBFC1FF48C08C2F8876E9F5809124
:205BA0002805882331F08075B9F18091290581FF33C08091290582FF1CC08091100688232D
:205BC00071F0409111065091120660911306709114060E947F1D80EA9FE00E94B833809199
:205BE0000F06882331F00E94F42E88EE93E00E94B8330E94431F892B59F08091290583FDCA
:205C000007C0009328050E944E160E94281302C010922805109229059FB7F89480912A0597
:205C20008D7F80932A059FBFC2FF1EC080912805807371F08091290582FF04C00E94751DCF
:205C40000E94EF2E8091290582608093290504C010922905109228059FB7F89480912A059E
:205C60008B7F80932A059FBF809128058C7711F00E944E1680912805803251F480912905BE
:205C800081FF06C00E945B11811102C010932805809129058111F2CEDF91CF911F910F91DB
:205CA000FF90EF9008959FB7F894EAE2F5E08081826080839FBF0895CF93DF930E94DC0C77
:205CC00080912805813021F482E00E94AD0C2FC00E945B11882341F080912A0580628093F5
:205CE0002A050E94312D02C01092280587ED94E00E945D111CC08D3079F0DD2399F18932A5
:205D000021F4D13009F04CC0D0E00E94FE1C8F3F09F448C08A3079F7EC2FF0E0E952FB4F8F
:205D200010820E94312D80912705882311F0C0E0EBCF8091D704811103C00E94350CF7CFA4
:205D4000843229F487ED94E00E947C11F6CF80912805813011F489E0F0CF87ED94E00E94EE
:205D6000C822EBCF813288F28F3279F28832B1F08B33B1F0CF3428F08BE00E94350CC0E063
:205D8000C4CF2C2F30E0CF5F9FE9980FF901E952FB4F9A3108F480528083B7CFD1E0B5CFD2
:205DA000D2E0B3CF0E94532E0E94312D80912705882309F4AACFDF91CF9108950E94532E9E
:205DC0000E94312D80912705811108C00E94431F892BB1F780912805883091F308954398DA
:205DE00008953B9A0C94EF2E823011F4439A08950C94EF2ECF93DF931F92CDB7DEB79091C7
:205E00002805923049F089830E94DE2E89810F90DF91CF910C94F42E0F90DF91CF91089559
:205E2000CF93DF93EC018991882319F00E94B81CFACFDF91CF910895CF93DF93FC01849141
:205E4000EF012196882321F00E94B81CFE01F7CFDF91CF910895EF92FF920F931F93CF936F
:205E6000DF931F92CDB7DEB7262FEDB6FEB66DB77EB7641B71090FB6F8947EBF0FBE6DBF61
:205E80000DB71EB70F5F1F4F302FF8019E2F931B941728F4622F0E94EE379193F7CF44234A
:205EA00061F0F801E40FF11D31978081805D49830E94B81C49814150F2CF0FB6F894FEBE86
:205EC0000FBEEDBE0F90DF91CF911F910F91FF90EF90089548E062E00C942B2F8A3020F0B2
:205EE000843620F442E003C041E001C043E06AE00C942B2F8F929F92AF92BF92CF92DF92F0
:205F0000EF92FF920F931F93CF93DF93CDB7DEB72A970FB6F894DEBF0FBECDBF6B017C013D
:205F2000142F20E030E0A9010E94C33487FF07C08DE20E94B81CF7FAF094F7F8F094012F81
:205F4000023060F020E030E048EC52E4C701B6010E9401376B017C010250F2CF10FF0AC017
:205F600020E030E040E251E4C701B6010E9401376B017C0120E030E040E05FE3C701B60187
:205F80000E94EA330E943235E1E0F0E0EC0FFD1FE10FF11D2EE22083D12C5AE0852E912C39
:205FA000A12CB12C6115710581059105A9F0D11201C0D394EE24E394F12CEC0EFD1EED0CD7
:205FC000F11CA50194010E94FA37605DF7016083B901CA01D394E6CF80E3D11648F4E1E026
:205FE000F0E0EC0FFD1FED0DF11D8083D394F5CF8D2DD1120BC0D394D3948F5FE1E0F0E0CF
:20600000EC0FFD1FE80FF11D80E38083DD2041F0FE01ED0DF11D80810E94B81CDA94F6CF1F
:206020002A960FB6F894DEBF0FBECDBFDF91CF911F910F91FF90EF90DF90CF90BF90AF90CF
:206040009F908F9008952091BD0620FF08C02BE832E441E25DE30E94013744E001C043E08C
:206060000C947A2F2091BD0620FF08C02BE832E441E25DE30E94013741E001C040E00C9474
:206080007A2F43E00C947A2F21E5829FC001112440E550E09D5F0C942A0740E550E0BC019A
:2060A0008EEA93E00C942A072DE0829FC00111244CE050E09E5F0C942A0769E080E090E0BD
:2060C0000E9408074DE450E060E876E081E090E00C942A07EF92FF920F931F93CF93DF9334
:2060E000CDB7DEB72C970FB6F894DEBF0FBECDBF182F80FFC1C08AE08093B00689E1809386
:20610000B3061092B1061092B20683E08093B4068AE097EDA3E2BCE38093B5069093B60624
:20612000A093B706B093B8068FE692E1A3E0BBE38093B9069093BA06A093BB06B093BC06B7
:206140001092BE0680E090E0A8ECB1E48093BF069093C006A093C106B093C20640E050E0CA
:206160006AEF73E44093C3065093C4066093C5067093C6068AEF90E09093C8068093C706DF
:2061800080E090E0A0E8BFE38093C9069093CA06A093CB06B093CC061092BD0680E090E0E2
:2061A000AAE7B3E48093800690938106A0938206B09383068093840690938506A0938606E3
:2061C000B09387068093880690938906A0938A06B0938B0640938C0650938D0660938E06A3
:2061E00070938F064093900650939106609392067093930640939406509395066093960683
:206200007093970640E050EA6CE077E4409398065093990660939A0670939B0640939C063E
:2062200050939D0660939E0670939F064093A0065093A1066093A2067093A30640E050E0FF
:2062400068E473EC4093A4065093A5066093A6067093A7064093A8065093A9066093AA0683
:206260007093AB064093AC065093AD066093AE067093AF060E945D3011FF10C0CE0101967B
:206280007C018CE0F70111928A95E9F700E0B701802F0E9454300F5F0830C9F712FF0AC0CD
:2062A00060E080E093E00E94080760E081E593E00E94080713FF05C060E08EEA93E00E94AC
:2062C00008072C960FB6F894DEBF0FBECDBFDF91CF911F910F91FF90EF9008951F93CF93C7
:2062E000DF93182FEB0181E5189FB00111247D5F40E550E0CE010E946807892B39F418826A
:20630000BE01812F0E94443080E001C081E0DF91CF911F910895CF93DF93EC0140E550E043
:206320006EEA73E00E946807892B31F41882CE010E944D3080E001C081E0DF91CF91089551
:206340001F93CF93DF93182FEB018DE0189FB00111247E5F4CE050E0CE010E946807892BAD
:2063600059F48CE0FE0111928A95E9F7BE01812F0E94543080E001C081E0DF91CF911F912C
:20638000089580E090E00E940007893059F44DE450E061E070E080E896E00E94680721E0FF
:2063A000892B09F420E0822F0895CF92DF92EF92FF92CF93DF93C82F6A017B0120E030E038
:2063C000A901C701B6010E94C33487FDE6C0C43608F445C02CE92C0F80E02330B8F530E016
:2063E000823079F0F901EE0FFF1FEE0FFF1F833011F1813019F0E058F94F23C0E457F94FFD
:2064000020C0E901CC0FDD1FCC0FDD1FC856D94F20E030E040E752E4C701B6010E940137F8
:2064200020E030E040E752E40E940137688379838A839B83AEC0EC55F94FF7FAF094F7F8A8
:20644000F094C082D182E282F382A3C08F5F2A3008F4A5C0843009F4A2C02A50BECFC7015C
:20646000B6010E94CF370E9437358C2F90E08C31910508F094C0FC01E958FF4F0C941C3865
:20648000633008F48EC06093B00683C06093B30680C06093B10602C06093B2060E94A215D7
:2064A00078C08091BD06662311F0846007C08B7F05C08091BD06662321F080648093BD06A4
:2064C00068C08F7BFBCF8091BD06662311F08068F5CF8F77F3CF6093B4065BC0C092B50619
:2064E000D092B606E092B706F092B80652C0C092B906D092BA06E092BB06F092BC0649C04A
:206500008091BD06662311F08160D8CF8E7FD6CF8091BD06662321F084FF45C08062CECF6E
:206520008F7DCCCF8091BD06662311F0886001C0877F8093BD060E9445042BC08091BD0627
:20654000662311F08061BACF8F7CB8CF6093BE0620C0C092BF06D092C006E092C106F09224
:20656000C20617C0C092C306D092C406E092C506F092C6060EC070E07093C8066093C706FB
:2065800008C0C092C906D092CA06E092CB06F092CC060E945D3080E007C084E005C083E067
:2065A00003C086E001C08AE0DF91CF91FF90EF90DF90CF9008950E94C131811108C087E0E9
:2065C0000E94350C8FEF0E946A300C94E40C0895882321F0813021F488E0089584E0089569
:2065E00080E10895882321F0813021F480E4089580E2089580E80895882321F0813021F494
:2066000084E0089582E0089580E108956F927F928F929F92AF92BF92CF92DF92EF92FF92A2
:206620000F931F93CF93DF937C018B016A01FB018081F701E80FF11D2081EF012D3229F4B7
:20664000229621816624639407C02B3211F0219602C022962181612CA12CB12C712C60E053
:2066600070E0CB01FE0130ED932E920E29E02915C8F0B39428E02B1588F0A1107A94A5E037
:20668000B0E09B01AC010E942238660F771F881F991F690D711D811D911D0BC0A11009C026
:2066A000739407C02EEF921207C0A11005C0AA24A39421962081D6CFBB2009F449C00E9489
:2066C00063354B015C0120E030E0A9010E94C334882361F18FEF78166CF42AE037ED43E26A
:2066E0005CE3C501B4010E9401374B015C0173947394F0CF78120BC02DEC3CEC4CEC5DE382
:20670000C501B4010E9401374B015C010FC0772069F020E030E040E251E4C501B4010E9438
:2067200001374B015C017A9417149CF3662021F0B7FAB094B7F8B094F60180829182A28201
:20674000B382CE19DF09C150F801C08381E001C080E0DF91CF911F910F91FF90EF90DF90C9
:20676000CF90BF90AF909F908F907F906F900895009741F0EFE9FFE03197F1F700C0000044
:206780000197F6CF08958F929F92AF92BF92CF92DF92EF92FF9269017A019B01AC010E9467
:2067A00001374B015C01A7019601C701B6010E9401379B01AC01C501B4010E94EA33FF904E
:2067C000EF90DF90CF90BF90AF909F908F900C948E375058BB27AA270ED076C23FD230F089
:2067E00044D220F031F49F3F11F41EF40FC20EF4E095E7FBDCC1E92F89D280F3BA17620772
:2068000073078407950718F071F49EF5B8C20EF4E0950B2EBA2FA02D0B01B90190010C0193
:20682000CA01A0011124FF27591B99F0593F50F4503E68F11A16F040A22F232F342F442780
:20684000585FF3CF469537952795A795F0405395C9F77EF41F16BA0B620B730B840BBAF0B8
:206860009150A1F0FF0FBB1F661F771F881FC2F70EC0BA0F621F731F841F48F48795779592
:206880006795B795F7959E3F08F0B3CF9395880F08F09927EE0F979587950895DFD158F07C
:2068A00080E891E009F49EEFE0D128F040E851E059F45EEF09C0AAC162C2E92FE07826D2F9
:2068C00068F3092E052AC1F3261737074807590738F00E2E07F8E02569F0E025E0640AC045
:2068E000EF6307F8009407FADB01B9019D01DC01CA01AD01EF935DD0E7D10AD05F9155237F
:2069000031F02BED3FE049E450FD49EC63CF0895DF93DD27B92FBF7740E85FE3161617065A
:2069200048075B0710F4D92F35D29F938F937F936F9332D3E6E2F1E06CD1C6D12F913F9129
