:200000000C9426040C9438040C9438040C9496040C9422110C9438040C9438040C943804BD
:200020000C9438040C9438040C9438040C9473130C9438040C9438040C9438040C94380496
:200040000C948C150C9438040C94121D0C94D41C0C9438040C9438040C9438040C943804B4
:200060000C9438040C9438044B0C4E0C530C560C590C5C0C5F0C620C650C680C6B0C770CD1
:20008000770C770C770C770C770C770C770C710C6E0C740CBE0CC10CC40CC70CCA0CCD0C6B
:2000A000D00CD30CED24D12CD12CF724042511251E25D12C2225D12C3025D12C3A25442562
:2000C0007525D12CD12CD12C4E255B256825952BA62BC52BA62BC92BDC2BCF2BD52BF12BAC
:2000E000F72B062C1D2C412C4B2C572C612C4032463249324C32513259326332CF32CF32E7
:20010000CF326B326E3277328032CF32CF32CF32CF32CF32CF32883292329E32A632A9323F
:20012000B232BB32C132084AD73B3BCE016E84BCBFFDC12F3D6C74319ABD56833DDA3D0061
:20014000C77F11BED9E4BB4C3E916BAAAABE000000803F05A84CCDB2D44EB93836A9020C43
:2001600050B9918688083CA6AAAA2ABE000000803F003E0D0A002C4C696D3A002C52583A05
:20018000002C4275663A002C002C57506F733A002C002C4D506F733A003C446F6F72003CA4
:2001A000436865636B003C416C61726D003C486F6D65003C486F6C64003C52756E003C49BA
:2001C000646C65005D0D0A005B302E396A2E32303135303831313A000D0A003D00244E005A
:2001E0005D0D0A00205300204600205400204D3800204D3900204D3500204D3400204D3310
:2002000000204D3200204D3100204D300020473934002047393300204739310020473930BC
:200220000020473230002047323100204731390020473138002047313700204700473338A2
:200240002E00473830004733004732004731004730005B005D0D0A005B544C4F3A005D0D22
:200260000A002C005B4739323A005D0D0A002C003A003330003238005B47005D0D0A003A0A
:20028000002C005B5052423A00290D0A00206D61782074726176656C2C206D6D002061635B
:2002A00063656C2C206D6D2F7365635E3200206D617820726174652C206D6D2F6D696E001F
:2002C0002C20737465702F6D6D007A00790078002028003D0024002028686F6D696E67200F
:2002E00070756C6C2D6F66662C206D6D290D0A002028686F6D696E67206465626F756E63A9
:20030000652C206D736563290D0A2432373D002028686F6D696E67207365656B2C206D6DC2
:200320002F6D696E290D0A2432363D002028686F6D696E6720666565642C206D6D2F6D6998
:200340006E290D0A2432353D00290D0A2432343D002028686F6D696E672064697220696E00
:2003600076657274206D61736B3A002028686F6D696E67206379636C652C20626F6F6C299B
:200380000D0A2432333D00202868617264206C696D6974732C20626F6F6C290D0A24323227
:2003A0003D002028736F6674206C696D6974732C20626F6F6C290D0A2432313D0020287294
:2003C00065706F727420696E636865732C20626F6F6C290D0A2432303D00202861726320C0
:2003E000746F6C6572616E63652C206D6D290D0A2431333D0020286A756E6374696F6E2043
:00000001FF
